{"abi":[{"type":"receive","stateMutability":"payable"},{"type":"function","name":"bounties","inputs":[{"name":"","type":"uint256","internalType":"uint256"}],"outputs":[{"name":"creator","type":"address","internalType":"address"},{"name":"reward","type":"uint256","internalType":"uint256"},{"name":"targetHash","type":"bytes32","internalType":"bytes32"},{"name":"active","type":"bool","internalType":"bool"}],"stateMutability":"view"},{"type":"function","name":"bountyCount","inputs":[],"outputs":[{"name":"","type":"uint256","internalType":"uint256"}],"stateMutability":"view"},{"type":"function","name":"claimBounty","inputs":[{"name":"_id","type":"uint256","internalType":"uint256"},{"name":"_secret","type":"string","internalType":"string"}],"outputs":[],"stateMutability":"nonpayable"},{"type":"function","name":"createBounty","inputs":[{"name":"_targetHash","type":"bytes32","internalType":"bytes32"}],"outputs":[],"stateMutability":"payable"},{"type":"event","name":"BountyClaimed","inputs":[{"name":"id","type":"uint256","indexed":true,"internalType":"uint256"},{"name":"winner","type":"address","indexed":true,"internalType":"address"},{"name":"reward","type":"uint256","indexed":false,"internalType":"uint256"}],"anonymous":false},{"type":"event","name":"BountyCreated","inputs":[{"name":"id","type":"uint256","indexed":true,"internalType":"uint256"},{"name":"reward","type":"uint256","indexed":false,"internalType":"uint256"},{"name":"targetHash","type":"bytes32","indexed":false,"internalType":"bytes32"}],"anonymous":false}],"bytecode":{"object":"0x6080604052348015600e575f5ffd5b50610b338061001c5f395ff3fe608060405260043610610042575f3560e01c8063148828de1461004d5780631a426550146100695780633e362c9614610091578063dc2f8744146100bb57610049565b3661004957005b5f5ffd5b610067600480360381019061006291906104f1565b6100fa565b005b348015610074575f5ffd5b5061008f600480360381019061008a919061068b565b610258565b005b34801561009c575f5ffd5b506100a5610451565b6040516100b291906106f4565b60405180910390f35b3480156100c6575f5ffd5b506100e160048036038101906100dc919061070d565b610457565b6040516100f194939291906107a0565b60405180910390f35b5f341161013c576040517f08c379a00000000000000000000000000000000000000000000000000000000081526004016101339061083d565b60405180910390fd5b60015f81548092919061014e90610888565b919050555060405180608001604052803373ffffffffffffffffffffffffffffffffffffffff168152602001348152602001828152602001600115158152505f5f60015481526020019081526020015f205f820151815f015f6101000a81548173ffffffffffffffffffffffffffffffffffffffff021916908373ffffffffffffffffffffffffffffffffffffffff16021790555060208201518160010155604082015181600201556060820151816003015f6101000a81548160ff0219169083151502179055509050506001547f53b54ed702584439f137aca483c3ed7c7d9f493ad5e884d0fe1aa682660ed738348360405161024d9291906108cf565b60405180910390a250565b5f5f5f8481526020019081526020015f209050806003015f9054906101000a900460ff166102bb576040517f08c379a00000000000000000000000000000000000000000000000000000000081526004016102b290610966565b60405180910390fd5b8060020154826040516020016102d191906109d6565b6040516020818303038152906040528051906020012014610327576040517f08c379a000000000000000000000000000000000000000000000000000000000815260040161031e90610a36565b60405180910390fd5b5f816001015490505f826003015f6101000a81548160ff0219169083151502179055505f82600101819055505f3373ffffffffffffffffffffffffffffffffffffffff168260405161037890610a81565b5f6040518083038185875af1925050503d805f81146103b2576040519150601f19603f3d011682016040523d82523d5f602084013e6103b7565b606091505b50509050806103fb576040517f08c379a00000000000000000000000000000000000000000000000000000000081526004016103f290610adf565b60405180910390fd5b3373ffffffffffffffffffffffffffffffffffffffff16857f23c972d46b3251ae358ad69fb3761ef8f5c38c5131502ed9e9bde9b129da92158460405161044291906106f4565b60405180910390a35050505050565b60015481565b5f602052805f5260405f205f91509050805f015f9054906101000a900473ffffffffffffffffffffffffffffffffffffffff1690806001015490806002015490806003015f9054906101000a900460ff16905084565b5f604051905090565b5f5ffd5b5f5ffd5b5f819050919050565b6104d0816104be565b81146104da575f5ffd5b50565b5f813590506104eb816104c7565b92915050565b5f60208284031215610506576105056104b6565b5b5f610513848285016104dd565b91505092915050565b5f819050919050565b61052e8161051c565b8114610538575f5ffd5b50565b5f8135905061054981610525565b92915050565b5f5ffd5b5f5ffd5b5f601f19601f8301169050919050565b7f4e487b71000000000000000000000000000000000000000000000000000000005f52604160045260245ffd5b61059d82610557565b810181811067ffffffffffffffff821117156105bc576105bb610567565b5b80604052505050565b5f6105ce6104ad565b90506105da8282610594565b919050565b5f67ffffffffffffffff8211156105f9576105f8610567565b5b61060282610557565b9050602081019050919050565b828183375f83830152505050565b5f61062f61062a846105df565b6105c5565b90508281526020810184848401111561064b5761064a610553565b5b61065684828561060f565b509392505050565b5f82601f8301126106725761067161054f565b5b813561068284826020860161061d565b91505092915050565b5f5f604083850312156106a1576106a06104b6565b5b5f6106ae8582860161053b565b925050602083013567ffffffffffffffff8111156106cf576106ce6104ba565b5b6106db8582860161065e565b9150509250929050565b6106ee8161051c565b82525050565b5f6020820190506107075f8301846106e5565b92915050565b5f60208284031215610722576107216104b6565b5b5f61072f8482850161053b565b91505092915050565b5f73ffffffffffffffffffffffffffffffffffffffff82169050919050565b5f61076182610738565b9050919050565b61077181610757565b82525050565b610780816104be565b82525050565b5f8115159050919050565b61079a81610786565b82525050565b5f6080820190506107b35f830187610768565b6107c060208301866106e5565b6107cd6040830185610777565b6107da6060830184610791565b95945050505050565b5f82825260208201905092915050565b7f4d7573742070726f7669646520612072657761726400000000000000000000005f82015250565b5f6108276015836107e3565b9150610832826107f3565b602082019050919050565b5f6020820190508181035f8301526108548161081b565b9050919050565b7f4e487b71000000000000000000000000000000000000000000000000000000005f52601160045260245ffd5b5f6108928261051c565b91507fffffffffffffffffffffffffffffffffffffffffffffffffffffffffffffffff82036108c4576108c361085b565b5b600182019050919050565b5f6040820190506108e25f8301856106e5565b6108ef6020830184610777565b9392505050565b7f426f756e7479206e6f7420616374697665206f7220616c726561647920636c615f8201527f696d656400000000000000000000000000000000000000000000000000000000602082015250565b5f6109506024836107e3565b915061095b826108f6565b604082019050919050565b5f6020820190508181035f83015261097d81610944565b9050919050565b5f81519050919050565b5f81905092915050565b8281835e5f83830152505050565b5f6109b082610984565b6109ba818561098e565b93506109ca818560208601610998565b80840191505092915050565b5f6109e182846109a6565b915081905092915050565b7f496e76616c6964207365637265740000000000000000000000000000000000005f82015250565b5f610a20600e836107e3565b9150610a2b826109ec565b602082019050919050565b5f6020820190508181035f830152610a4d81610a14565b9050919050565b5f81905092915050565b50565b5f610a6c5f83610a54565b9150610a7782610a5e565b5f82019050919050565b5f610a8b82610a61565b9150819050919050565b7f5472616e73666572206661696c656400000000000000000000000000000000005f82015250565b5f610ac9600f836107e3565b9150610ad482610a95565b602082019050919050565b5f6020820190508181035f830152610af681610abd565b905091905056fea2646970667358221220fe272904bf6da313f7478a33a7b0546c26a8187a3f211cfc59a1f49e7b33833e64736f6c63430008210033","linkReferences":{}},"methodIdentifiers":{"bounties(uint256)":"dc2f8744","bountyCount()":"3e362c96","claimBounty(uint256,string)":"1a426550","createBounty(bytes32)":"148828de"},"id":0}